:020000040000FA
:0600000002010702207B53
:03002B000222B9F5
:0300430002229303
:030053000220EE9A
:030073000222DA8C
:10008300021EE7E5C754F84401F5C77901220000D1
:100093000080FB120086B900030200F1E4791A78AC
:1000A30002B800028004F709D8FCE4791C7802B88E
:1000B30000028004F709D8FCE49002817886790F66
:1000C3008002F0A3D8FCD9FA7A067B119001377825
:1000D300F379018015E493A3AD82AE838A828B8387
:1000E300F0A3AA82AB838D828E83D8E9D9E7758288
:1000F300E07583C1740312011975829175830074CD
:100103000012011975D00075813F751881751902A8
:10011300759F00020096C09FF59FE473D09F22D085
:1001230083D082C09FE493C0E0740193C0E0740263
:1001330093F59F22B503C703F103BB03FF0000B48C
:10014300000028002800283075A000A000A000A00F
:100153000000080008E001F000100010001000107B
:10016300001000100050005000500010001000D08C
:10017300070000000000000F0001000500307507B4
:10018300001000010081FF00000000FF02020201D5
:1001930082010000EF8102FB810100005E1102F782
:1001A30081010000B20202FB810100005F1102F530
:1001B30081010000C802FFFF0100FF20020182014C
:1001C3000000F28102FB810100008D1102FD81001C
:1001D3000000000002F981030000A5031D0B1D0BA5
:1001E3001D0B1D0B1D0B1D0B1D0B1D0B1D0B1D0BCC
:1001F3001D0B1D0B1D0BF10C0F0DEB0C01E8030583
:100203003F10020AFFFF00FEFF0100000000640030
:10021300000000FF00000000000000FF00000001DC
:10022300000000006112120122F1B703120122073C
:10023300B80312012236B8031201226CB80312016B
:100243002283B8031201229AB803120122D1B80300
:1002530012012224B9031201223BB9031201220E17
:10026300B30312012225B30312012256B303120171
:100273002291B303120122BBB303120122E5B3039C
:10028300120122FCB30312012213B4031201222A26
:10029300B40312012253B40312012266B403120100
:1002A300227CB403120122A6B40312012235AA024E
:1002B30012012239AB0212012266AB02120122BCE7
:1002C300AB02120122DFAB02120122F3AB021201D5
:1002D30022F5AB0212012218AC0212012227AD0251
:1002E300120122EBAD02120122C0AE021201223131
:1002F300AF02120122BDAF02120122C0AF021201EE
:100303002248B00212012283B002120122EAB00293
:10031300120122EDB00212012224B1021201224D78
:10032300B102120122F8B10212012282B2021201B9
:1003330022D1B202120122DEB202120122E1B20282
:1003430012012241B3021201224CB302120122CB49
:10035300B302120122CEB302120122E1B30212014F
:1003630022E4B30212012273B4021201228DB402F9
:100373001201229DB402120122CDB402120122DA2B
:10038300B402120122DDB4021201225EB50212018F
:10039300224CB602120122FEB60212012201CC0245
:1003A300120122F9CC021201222DCD02120122AF39
:1003B300CD02120122CFCD0212012217CE02120169
:1003C300226ACE02120122CECE021201225BCF029A
:1003D30012012215D00212012224D302120122AFEC
:1003E300D402120122D2D402120122B597031201C0
:1003F30022529903120122B69903120122159A037C
:10040300120122239A031201224C9A0312012200A1
:100413008003120122288003120122568003120155
:10042300228D8003120122EB800312012236810305
:10043300120122818103120122C1810312012207C9
:100443008203120122358203120122F28203120176
:1004530022FC82031201220983031201223C83033B
:100463001201220884031201221484031201222C94
:100473008403120122368403120122B4840312017D
:10048300221BBF0312012229BF0312012241BF0312
:1004930012012259BF0312012271BF031201221755
:1004A300ED01120122C3ED011201223EEE01120100
:1004B300225FEF011201229BEF0112012244F0019E
:1004C3001201222BF1011201228FF201120122E605
:1004D300F20112012267F30112012257F401120102
:1004E30022A4F4011201222AF5011201225CF50172
:1004F30012012270F701120122B2F701120122D078
:10050300F70112012272F8011201223AF9011201D4
:100513002247FB01120122609B03120122769B03F7
:100523001201229C9B03120122B89C03120122C2D6
:100533009C03120122F79D03120122EF9E03120175
:100543002274FB0212012218FC021201224BFC024C
:1005530012012295FC0212012258FE02120122DE30
:10056300AD0112012257AE0112012267AE01120141
:100573002255AF011201225FAF0112012284AF01A4
:100583001201228FAF0112012279B001120122DC84
:10059300B00112012292B10112012279B3011201B9
:1005A3002232B5011201220EB601120122C2B60196
:1005B300120122FFB901120122ADBA011201221C5C
:1005C300BC011201229CBD0112012243BE01120192
:1005D300228CBE01120122C3BE0112012260BF019F
:1005E300120122EBBF01120122C8C0011201221D18
:1005F300C1011201227CC2011201228CC20112012B
:1006030022B9C20112012210C301120122B9C3018E
:10061300120122C0C4011201228AC501120122EA79
:10062300C6011201222DC701120122D2C7011201F4
:1006330022F8C70112012206CA011201220BCA01C4
:1006430012012210CC011201225DCC01120122D031
:10065300CC0112012203CD01120122A5CD01120109
:10066300224ECE0112012286CE0112012289CE0131
:10067300120122D1CE0112012213CF011201226AEB
:10068300CF0112012228AC031201223BAC03120159
:100693002249AC0312012291AC03120122A7AC033D
:1006A300120122EEAC0312012202AE031201228FC9
:1006B300AE03120122DAAE031201220B5E00120115
:1006C300221B5E001201227E5E00120122C35E0025
:1006D300120122795F001201225460001201227D6F
:1006E3006000120122AD6000120122ED62001201CE
:1006F30022D46400120122AC6600120122F06700CA
:10070300120122576A00120122656B00120122B7FF
:100713006C00120122C16D00120122036E0012014E
:10072300223B6E001201225D6E00120122C06E0098
:100733001201228273001201221774001201226B2C
:100743007400120122927400120122D0740012016B
:1007530022EF74001201224975001201224976002A
:10076300120122CE760012012260EA021201226AED
:10077300EA0212012212EB0212012255EB021201CC
:100783002270EB0212012200EC0212012228EC0279
:1007930012012260EC0212012297EC02120122C024
:1007A300EC02120122FAEC021201220FED021201F5
:1007B30022DCED02120122FFED0212012221EE02E0
:1007C30012012236EE02120122BCEE02120122F6BF
:1007D300EE021201226EEF02120122B7EF021201A2
:1007E30022E1EF021201220CF00212012204BC03E7
:1007F3001201220080021201222E8002120122899C
:1008030081021201226982021201228882021201EC
:1008130022058302120122488302120122C38402A9
:100823001201223285021201225D8702120122E1A6
:100833008902120122928A02120122888B0212017A
:1008430022288C02120122268D02120122B18D026E
:10085300120122B1BA031201221ABB031201226E42
:10086300BB031201229DBB03120122BEBB03120173
:1008730022228F031201228F8F03120122D68F03AC
:10088300120122EE9003120122EA9103120122CDFA
:10089300920312012249DD021201228BDD021201B1
:1008A3002264DE021201225EDF0212012240E00214
:1008B300120122A9E002120122C5E1021201223132
:1008C300E20212012234E2021201225DE20212016B
:1008D30022D7E2021201227CE30212012291E302F7
:1008E300120122D7E302120122F0E302120122F3E2
:1008F300E30212012278A203120122B4A20312011D
:1009030022F2A203120122BCA3031201222BA4038D
:1009130012012266A403120122A4A403120122D409
:10092300A403120122FBA40312012269A5031201ED
:1009330022ABA5031201220E82011201222D840192
:100943001201221086011201224C86011201227922
:1009530086011201224087011201228B87011201B5
:1009630022D68701120122E8870112012228880179
:100973001201225C8801120122AA8801120122DBE2
:100983008801120122FE88011201228589011201C8
:10099300226D8A011201225A8B01120122538C010A
:1009A300120122628E0112012204940112012254C7
:1009B3009401120122CB960112012204AF0312010A
:1009C30022B9B003120122344100120122E3410093
:1009D3001201222D4200120122634300120122F967
:1009E30044001201226E4500120122AF450012019C
:1009F30022014600120122724700120122B7490068
:100A0300120122B14A00120122D04A00120122EF40
:100A13004A00120122F24A00120122234C00120161
:100A2300221B4D00120122074E00120122774E00B5
:100A3300120122E94E00120122704F001201224BD3
:100A43005000120122205100120122FF5100120115
:100A5300228A5200120122F852001201226C530022
:100A6300120122975300120122565400120122430D
:100A730057001201228C5700120122CF5700120196
:100A830022485800120122E05800120122D15900D5
:100A9300120122F659001201223C5A001201226669
:100AA3005A00120122AE5A00120122295B001201E0
:100AB30022835B00120122EC5C001201229A5D008A
:100AC300120122DB5D00120122619C02120122AF9E
:100AD3009C02120122BB9C02120122999D02120167
:100AE30022CA9D02120122FB9D021201227B9E0259
:100AF300120122B39E02120122059F021201224219
:100B03009F021201225FA10212012285A302120198
:100B13002270A5021201225AA702120122492300C0
:100B230012012234F0021201227FF402120122C3C5
:100B3300F502120122C3DE011201227BE10112013F
:100B43002281E1011201223BE40112012208E701A3
:100B53001201223C8503120122E08503120122B215
:100B63008603120122DC86031201222A8903120161
:100B7300225423001201229E2300120122DF31009E
:100B8300120122643300120122873400120122F879
:100B93003A00120122F33B00120122303C00120101
:100BA30022533C00120122953C001201229F3C007B
:100BB3001201228D3D00120122833E001201221CEC
:100BC3003F00120122F3A503120122EDA603120135
:100BD3002261A7031201229FA70312012213A80374
:100BE3001201228CA80312012295A803120122A14B
:100BF300A803120122B6A803120122F4A8031201CA
:100C0300220AA90312012217E40212012224E40298
:100C13001201223EE4021201227DE402120122BBF0
:100C2300E40212012220E50212012235E50212013B
:100C3300224CE5021201225AE50212012269E50261
:100C43001201227EE50212012293E5021201229E85
:100C5300E502120122AAE502120122B7E5021201FE
:100C630022C6E502120122D1E502120122F6E502B3
:100C73001201229DE602120122B2E602120122C7EC
:100C8300E602120122E1E602120122FCE60212014F
:100C93002219E70212012224E702120122E0E702ED
:100CA300120122CCE802120122F1E802120122FC15
:100CB300E80212012211E90212012225E9021201BE
:100CC3002286E9021201228CE90212012292E90230
:100CD30012012298E902120122B0E902120122E371
:100CE300E9021201226FB70212012291B702120127
:100CF3002271B80212012248BB0212012274BC0203
:100D030012012298BD021201224ABE02120122EBF5
:100D1300BE02120122378E02120122BB8E02120181
:100D2300226A8F02120122C99002120122EA920260
:100D3300120122D693021201220B94021201222DD8
:100D43009402120122DC9402120122D496021201AF
:100D530022FD96021201228F9702120122C19702ED
:100D6300120122CE97021201222598021201224B70
:100D73009802120122B89A02120122BB9B021201AD
:100D830022139C0212012257D00112012261D101C8
:100D930012012248D20112012252D20112012274FD
:100DA300D20112012280D20112012219D4011201AF
:100DB3002248D40112012264D501120122BDD501BA
:100DC30012012223D70112012202D8011201225E4D
:100DD300D801120122CBD80112012206D901120136
:100DE3002245D901120122FEDB0112012218DC0186
:100DF300120122A4DC01120122B2DC011201220B36
:100E0300DD0112012219DD011201228CDD01120123
:100E130022F0DD011201223ADE01120122B8B403ED
:100E2300120122DDB4031201224FB503120122FD88
:100E3300D50212012206D6021201220FD602120196
:100E430022E6D60212012297D802120122CDD8023D
:100E530012012207D9021201223DD902120122777F
:100E6300D902120122ABD902120122D7D9021201EF
:100E73002220DA021201225ADA02120122A3DA0232
:100E8300120122FBDA0212012230DB021201228B51
:100E9300DB02120122C5DB0212012216DC0212015F
:100EA300224CDC0212012286DC02120122A9DC029E
:100EB3001201220AC00312012236C0031201229139
:100EC300C0031201229BC003120122ABC003120113
:100ED30022568A03120122958A031201221E8B03D2
:100EE300120122338B031201227E8B03120122BDD6
:100EF3008B03120122CC8B03120122258C031201D6
:100F030022748C03120122C48C03120122B88D03B4
:100F1300120122AD8E03120122EA8E0312012283F3
:100F2300C103120122E498011201225A9B0112010A
:100F330022D29C01120122C49D01120122499E0169
:100F4300120122C59E01120122EA9E011201228092
:100F5300A201120122F4A201120122E0A301120153
:100F6300221AA4011201225AA40112012214A60179
:100F730012012245A60112012298A601120122E1C3
:100F8300A6011201224FA70112012281A70112011A
:100F93002299A701120122AEA801120122BEA801C3
:100FA300120122DDA901120122FFA901120122353A
:100FB300AA01120122DAAB011201225AAC01120179
:100FC3002299AC01120122B0AD01120122EAC2033F
:100FD30012012233C20312012272C203120122EC54
:100FE300FF01120122657F00120122757F001201A9
:100FF300228A7F00120122D37F001201221DBD032A
:10100300120122A2BD0312012208BE0312012260B3
:10101300FB0112012277FB01120122F0FB011201F5
:1010230022C9FC0112012287FF01120122F99E034A
:10103300120122899F0312012207A00312012290A9
:10104300A00312012225A103120122AFA103120161
:1010530022B9A103120122CCA103120122E6A103AA
:10106300120122FDA1031201225DA20312012275C6
:10107300A2031201227CC20312012295C2031201B0
:101083002206F60212012210F6021201224EF60285
:1010930012012297F602120122D1F6021201222B2B
:1010A300F7021201224CF70212012255F702120134
:1010B30022A6F702120122CFF702120122D9F70268
:1010C30012012245F802120122D3F8021201222151
:1010D300F90212012257F902120122DEF90212016A
:1010E300221EFA0212012256FA0212012268FA02A1
:1010F30012012287FA0212012290FA021201224AF5
:10110300FB021201225DB603120122B2B6031201E1
:101113002220B70312012290B7031201223AA90336
:1011230012012264A90312012239AA031201222DFA
:10113300AB03120122B0AB0312012221BE03120141
:10114300220FB10312012245B1031201227BB10325
:10115300120122D4B203120122B5C003120122CB21
:10116300C003120122D5C0031201221FC1031201C1
:1011730022357700120122F277001201222D780026
:10118300120122557800120122B7780012012203BE
:1011930079001201225C7900120122ED790012011B
:1011A30022EF7A00120122AC7C001201222E7D0074
:1011B300120122937D00120122AA7D00120122BA9C
:1011C3007E00120122F87E001201228F9303120186
:1011D30022A893031201224C94031201228C94033C
:1011E300120122A59403120122D99403120122268B
:1011F30095031201225A95031201229C95031201B1
:1012030022A89703120122C5C102120122CDC202F4
:10121300120122B3C30212012283C6021201225415
:10122300C70212012257C7021201225FC90212012B
:1012330022A9C902120122ACC902120122D8CA0290
:101243001201224CCB02120122BFCB021201225205
:10125300B90312012268B90312012293B9031201DF
:1012630022AEBA03120122BEC203120122DC7F00A6
:10127300E76670100809E766700A0809E7667004F4
:101283000809E76622E066701008A3E066700A08A2
:10129300A3E066700408A3E06622C3E7960809E7A3
:1012A300960809E7960809E79622C3E09608A3E0A3
:1012B3009608A3E09608A3E09622C008C3E096F53B
:1012C3000808A3E096420808A3E096420808A3E0B2
:1012D3009645087001D3D00822080808EAC0E0EB5D
:1012E300C0E086F0E7A4FA180986F0E7A42AFA1802
:1012F3000986F0E7A42AFA180986F0E7A42AFA195E
:1013030086F0E7A4FBE5F02AFA190886F0E7A42B98
:10131300FBE5F03AFA190886F0E7A42BFBE5F03A6F
:10132300FA18180986F0E7A4C5F02BFBE43AFA197A
:1013330008E7C5F0C6A426F6E5F03BFBE43AFA1845
:1013430086F0E7A4F6E5F00826F6E43B08F6E43A6F
:1013530008F6D0E0FBD0E0FA22E4CFC0E0E4CEC050
:10136300E0E4CDC0E0E4CCC0E075F020E626F6086A
:10137300E633F608E633F608E633F6181818EC33C6
:10138300FCED33FDEE33FEEF33FFC3EC9709ED972E
:1013930009EE9709EF97191919400FFFEC97FC090C
:1013A300ED97FD09EE97FE191906D5F0BFECF70985
:1013B300EDF709EEF709EFF7191919D0E0FCD0E0C2
:1013C300FDD0E0FED0E0FF226016080808C6C31374
:1013D300C618C613C618C613C618C613C6D5E0EA80
:1013E300227009080808226016181818C6C333C6E5
:1013F30008C633C608C633C608C633C6D5E0EA22D4
:10140300E627F60809E637F60809E637F60809E697
:1014130037F622E026F608A3E036F608A3E036F610
:1014230008A3E036F622E026F008A3E036F008A38E
:10143300E036F008A3E036F022C3E697F60809E6A3
:1014430097F60809E697F60809E697F622C3E096A9
:10145300F008A3E096F008A3E096F008A3E096F066
:1014630022E657F60809E657F60809E657F608098B
:10147300E657F622E056F008A3E056F008A3E0563C
:10148300F008A3E056F022E667F60809E667F608D7
:1014930009E667F60809E667F622E0F608A3E0F630
:1014A30008A3E0F608A3E0F622E6F008A3E6F008B6
:1014B300A3E6F008A3E6F022E0FAA3E0FBA3E0FC36
:1014C300A3E0FD22EAF0A3EBF0A3ECF0A3EDF022FE
:1014D300E0F8A3E0F9A3E0FAA3E0FB22E8F0A3E934
:1014E300F0A3EAF0A3EBF022CAC0E0E6F0A308DA27
:1014F300FAD0E0FA22CAC0E0E0A3C582CCC582C517
:1015030083CDC583F0A3C582CCC582C583CDC583F6
:10151300DAE6D0E0CA22C3E498F8E499F912155A3E
:101523008026C3E49AFAE49BFBE920E7E912155A03
:10153300E498F8E499F922C3E498F8E499F91215C8
:101543005AE498F8E499F9C3E49AFAE49BFB22EB92
:1015530020E7CFE920E7E0B90010BB0008E88AF0F4
:1015630084F8AAF022E4FBC8FA22EB70227B10C8AD
:1015730033C8C933C9335007C39AC3DBF280069A11
:1015830050012ADBEAC833F4C8C933F4C9FA227517
:10159300F008E4C833C8C933C933C99AC99B500496
:1015A300C92AC93BD5F0ECFBC833F4C8E4C9FA2215
:1015B300600D08C6A2E713C618C613C6D5E0F3220A
:1015C300600C08C6C313C618C613C6D5E0F4227050
:1015D3000422600D18C6C333C608C633C6D5E0F46B
:1015E3001822251810AF08F518400C15198008F5B6
:1015F3001840021519D2AF2200C0D0251810AF0829
:10160300F518500C05198008F51850020519D2AFCA
:10161300D0D0222518F58210AF08F518400C151903
:101623008008F51840021519D2AF851983222518B1
:10163300F582E43519F583222518F8E43519F922E2
:101643002518FAE43519FB222518FCE43519FD2287
:10165300E4732518C582C0E0E51934FFC583C0E0F3
:10166300E518C3958224F810AF088583198582187D
:101673008008858319858218D2AFCEF0A3E520F0C8
:10168300A37808E608F0A3DEFAEFF0A3E58124FAD5
:10169300F8E608F0A3E608F0A3E608F0A30808E6D6
:1016A30008F0A3E608F0A315811581D0E0FED0E091
:1016B300F8158115811581E8C0E0EEC0E0222518F8
:1016C300C582C0E0E51934FFC583C0E0E518C395C2
:1016D3008224F910AF0885831985821880088583D1
:1016E30019858218D2AFCEF0A3E520F0A37808E6DF
:1016F30008F0A3DEFAEFF0A3E58124FBF8E608F097
:10170300A3E608F0A30808E608F0A3E608F0A3158B
:10171300811581D0E0FED0E0F815811581E8C0E0A5
:10172300EEC0E022851983851882E0A3FEE0A3F5CD
:10173300207808E0A3F608DFFAE0A3FFE0A3C0E007
:10174300E0A3C0E0E0A3C0E0E0A3C0E0E0A3C0E00A
:1017530010AF0885821885831980088582188583D0
:1017630019D2AFD083D08202011F851983851882D5
:10177300E0A3FEE0A3F5207808E0A3F608DFFAE093
:10178300A3FFE0A3C0E0E0A3C0E0E0A3C0E0E0A3C8
:10179300C0E010AF088582188583198008858218F8
:1017A300858319D2AFD083D08222C0D02518C582B9
:1017B300C0E0E51934FFC583C0E0E518C395822472
:1017C300F310AF08858319858218800885831985EE
:1017D3008218D2AFC8F0A3E9F0A3EAF0A3EBF0A319
:1017E3007908E709F0A3D8FAECF0A3EDF0A3EEF043
:1017F300A3EFF0A3D0E0F0A3D0E0F0A3D0E0F0A3F8
:10180300E520F0A3E5F0F0A322851983851882E093
:10181300C0E0A3E0F9A3E0FAA3E0FBA37808E0F6B5
:1018230008A3DFFAE0FCA3E0FDA3E0FEA3E0FFA32F
:10183300E0C0E0A3E0C0E0A3E0F5D0A3E0F520A37F
:10184300E0A3F5F010AF0885831985821880088519
:101853008319858218D2AFD082D083D0E0F8D0E04C
:101863003274048006740280027401C0E0F404122E
:101873001616D0E01214EB22740480047402800064
:10188300CCC0E0EDC0E0E518C39CCCAD1950011D00
:1018930010AF068C188D1980068C188D19D2AF12D3
:1018A30014F8D0E0FDD0E0FC22D083D082E9C0E080
:1018B300E493A3C386F0C5F095F0F908E493A386F7
:1018C300F0C5F095F0700BE493A3C3994005E904C8
:1018D3008002A3E475F002A42582F582E5F0358346
:1018E300F583D0E0F9E493A3C0E0E493C0E022D011
:1018F30083D082ECC0E0EDC0E0E493A3FCE493A3C7
:10190300FDED4C600D12193EEC24FFFCED34FFFDA0
:1019130080EFE493A3FCE493A3FDED4C600D121957
:101923007DEC24FFFCED34FFFD80EFD0E0FDD0E043
:10193300FCE493A3C0E0E493C0E022C0E0C3E493DB
:1019430096087401939618400FE493667008087420
:101953000193661870007019A3A3C3E493960874E7
:1019630001939618A3A3400DD0E0D0E0D0E0021974
:101973002EA3A3A3A3A3A3D0E022C0E0C0F088F0CA
:10198300E4936670080874019366187000A8F0A3C6
:10199300A3700BD0F0D0E0D0E0D0E002192EA3A3C7
:1019A300D0F0D0E02274F51216C1EAFEEBFFEE246C
:1019B30034F8EF3400F988088909EE2435F582EF0D
:1019C3003400F583E0F8EE2437F582EF3400F58335
:1019D300E0F50AEC850AF0A4FCAAF0850AF0EDA470
:1019E3002AFDE82CF8E43DF97A257B0012155AEA22
:1019F300850882850983F0F8740758F97401B900E2
:101A0300028004C333D9FCFAE8131313541FF8EE0E
:101A130028F8EF3400F9E8245DF582E93400F58312
:101A2300E05A6008EE2434F582EF802CEE2434F57E
:101A330082EF3400F583E0C0E0EE2436F582EF3424
:101A430000F583E0F5F0D0E084A8F0EE28F8EF3459
:101A530000F9E82438F582E93400F583E0F97F04DE
:101A630002176D74F51216C1EAFEEBFFEE2434F58E
:101A730082EF3400F583E0C0E0EE2435F582EF34E5
:101A830000F583D0E0F08E828F83A3A3A3A3A3A347
:101A9300A3C082C0838E828F83A3A3A3A3A3E0F8F2
:101AA300A3E0F9D083D082E0C398F508A3E099F5C9
:101AB30009EE247FF582EF3400F583E06401706959
:101AC300EE2480F582EF3400F583E0F8A3E0F98E8D
:101AD300828F83A3A3A3A3A3A3A3E0FCA3E0FD8E10
:101AE300828F83A3A3A3A3A3E0FAA3E0FBC3EA9C8F
:101AF300EB9D5010C3EC98ED99402EC3EA98EB99F7
:101B03005027800EC3EA98EB994007C3EC98ED99F0
:101B130040177CBF7D07EEFAEFFB120A63EE247FCA
:101B2300F582EF3400F583E4F0EE2434F8EF34006B
:101B3300F9E8FCE9FDEE2435F582EF3400F583E0A6
:101B4300F8EE2437F582EF3400F583E0F50AE50873
:101B5300850AF0A4F508AAF0850AF0E509A42AF598
:101B630009E82508F8E43509F97A257B0012155AA6
:101B7300EA8C828D83F0F8740758F97401B9000276
:101B83008004C333D9FCFAE8131313541FF8EE2867
:101B9300F8EF3400F9E8245DF582E93400F583E0D9
:101BA3005A6008EE2434F582EF802CEE2434F5825B
:101BB300EF3400F583E0C0E0EE2436F582EF340025
:101BC300F583E0F5F0D0E084A8F0EE28F8EF3400D8
:101BD300F9E82438F582E93400F583E0F912228527
:101BE300021A6174EF1216C1900479E0640860056B
:101BF300E06407702A9061C8E060249004A7E0F4D1
:101C0300601DE0F875F005A4C8AAF02AF974A928A4
:101C1300FE740439FF8E828F83A3A3A3E0700302B3
:101C23001D16906060E0C0E0EE2468F582EF34009A
:101C3300F583D0E0F0750CFB750D07750800750989
:101C430000E5D914F50AE5D95403F50E60177403BA
:101C5300650E605CE50A6010EE2467F582EF3400E0
:101C6300F583E07003021CFB9007F6E06401602A31
:101C7300EE2482F582EF3400F583E060047804807B
:101C8300027800850A08E508C398FA95E0FB120973
:101C9300498A088B09EA45097005120CC78074EE5E
:101CA3002482F582EF3400F583E070048A0C8B0DF7
:101CB300E50A6012850C82850D83F50BE5D9F0A347
:101CC300150BE50B70F6EE2482F582EF3400F583F5
:101CD300E0604474FC250AF50A780C121868AC0A13
:101CE300A90EEEFAEFFB120B1774021215FBE97043
:101CF30026AA08AB0912110B793D8E828F83A3A309
:101D0300A3A3E0FA7B0012082FEEFAEFFB120A8777
:101D1300120B77790080747403650E6056850A1080
:101D23007511007810121868AC0CAD0DAA08AB0938
:101D3300120AF374021215FBEE2468F582EF3400E5
:101D4300F583E064807004747F8001E0F50C780C07
:101D530012186CE50EF50C780C12186CA90AAC0875
:101D6300AD099004A7E0FA7B001207ED7402121587
:101D7300FB8013900479E06408700BAC0CAD0DEE9E
:101D8300FAEFFB120B47120CD379017F0A02176D8E
:101D930074F51216C174FC1215E5EAFEEBFF89080F
:101DA300A2AFE433F509C2AF806AEE2463F8EF34DF
:101DB30000F97A007B00A2AFE433F50AC2AF888250
:101DC3008983E0FCA3E0FDEC4D603A88828983E0DF
:101DD300FAA3E0FB8A828B83E0FCA3E0FD8882897F
:101DE30083ECF0A3EDF08A828B83E4F0A3F0888286
:101DF3008983E0FCA3E0FDEC4D700A88828983A30C
:101E0300A3E4F0A3F0E50AA2E092AF12110B90074E
:101E1300C6E004F0EE2463F582EF3400F583E0F8C6
:101E2300A3E0F9E849603DEE2463F582EF3400F561
:101E330083E02402FAA3E03400FBEA2402F50AEB70
:101E43003400F50B780A1218688A828B83E0FCA3AE
:101E5300E0F9EEFAEFFB120AB774021215FBE97010
:101E630003021DAD9007C6E060639007C7E0F890DA
:101E730007C6E0C398500C7402650870509007C8F9
:101E8300E0604A8E828F83A3A3A3A3E08518828593
:101E93001983F0A3E4F09007C6E0F8740212163138
:101EA300E8F0A3E4F09007C6E0F89007C5E028F057
:101EB3007402121631AC82AD83851882851983AA08
:101EC30082AB8379011207F99007C6E4F0E509A212
:101ED300E092AF74041215FB021A610000851A87A1
:101EE300851BC622C0E0C0D0E8C0E0E9C0E0EAC07C
:101EF300E0EBC0E0ECC0E0EDC0E0EEC0E0C008C045
:101F030009C00AC00BC082C083C0F0A2AFE433FE95
:101F1300C2AF759B00906182E0A2E05012E591A2EE
:101F2300E0500C7591FE7401651A7003121BE6E014
:101F3300A2E55051E591A2E5504B7591DF900479EC
:101F4300E064076005E0640870237401651A703566
:101F530079019004A7E0FA75F005A4CAA8F028FB5C
:101F630074A92AFA74043BFB121D938018E0640DD4
:101F7300701390049BE004F064287002E4F07A008C
:101F8300E0F9120CD9906182E0A2E6400302202E10
:101F9300E591A2E6400302202E7591BF900479E0FB
:101FA30064057008120BE3120BEF8003120BE97543
:101FB3001A00120C49E990047AF07900120C2B12E2
:101FC30009D37A017B00900478E0F91210DB907852
:101FD30003E0644270559007FAE014F0704DC2AF0D
:101FE300121FE600781DD0E0F618D0E0F6E59F5406
:101FF3000770057509FF800375097FC4C0E0781C6D
:10200300E6F50808E65509F509740B78081215C3B7
:10201300D0E02508F8906270E0A2E740F8E8C33307
:10202300906272F0906270E0D2E0F0906181E0A281
:10203300E35009E5E9A2E3500375E9F7A3E0A2E75A
:102043005009E591A2E7500375917FEEA2E092AFAC
:10205300D0F0D083D082D00BD00AD009D008D0E002
:10206300FED0E0FDD0E0FCD0E0FBD0E0FAD0E0F918
:10207300D0E0F8D0D0D0E032C0E0C0D0C082C0837E
:10208300906183E0A2E05009E5BFA2E0500375BF71
:10209300FEE0A2E15009E5BFA2E1500375BFFDE0F8
:1020A300A2E25009E5BFA2E2500375BFFBE0A2E341
:1020B3005009E5BFA2E3500375BFF7E0A2E450095E
:1020C300E5BFA2E4500375BFEFE0A2E55009E5BF09
:1020D300A2E5500375BFDFE0A2E65009E5BFA2E623
:1020E300500375BFBFD083D0828088C0E0C0D0E8E2
:1020F300C0E0E9C0E0EAC0E0EBC0E0ECC0E0EDC066
:10210300E0C0F0E5A7A2E6500FE5A1A2E65009530F
:10211300A7BF75A1BF122153E5A7A2E5500CE5A106
:10212300A2E5500653A7DF75A1DFE5A7A2E1500999
:10213300E5A1A2E1500375A1FDE5A7A2E2500CE5DC
:10214300A1A2E2500653A7FB75A1FBD0F0022064C5
:1021530074F81216C1751A01900479E064067015BB
:10216300120B9B8A828B83A3A3A3A3A3A3E0FAA34B
:10217300E0FB120BD1A2AFE433FED2AF90047FE0B9
:10218300640170187A207B00900478E0F91211EF53
:102193007A207B00900478E0F91210E1906182E0EC
:1021A300D2E6F09007F7E0602185C61B8016900405
:1021B3007EE064017008E5C654F84405F5C653BED5
:1021C300FC121EE07401651A60E4EEA2E092AF7F98
:1021D3000102176D74ED1216C18A088B098C0A8DE2
:1021E3000B7413121631780C12149D7808790C12A3
:1021F300129D7510017511C87512007513005012E8
:102203007808790C12143C7810790812129D501634
:102213008010780C790812143C7810790C12129DF6
:1022230040047901800279007F0C02176D74ED126E
:1022330016C18A088B098C0A8D0B74131216317818
:102243000C12149D780C790812129D4011780879AC
:102253000C12143CAA08AB09AC0AAD0B8022751012
:10226300007511007512007513017810790C1214A2
:102273003C78107908121403AA10AB11AC12AD13F9
:1022830080A6C082C083E9906000F0D083D0822210
:10229300C0E074F21217ADA2AFE433FED2AFC2C0F6
:1022A300E5D1A2E4500653D1EF12106FEEA2E092F3
:1022B300AF7F0102180CC0E0C0D0E8C0E0E9C0E085
:1022C300E5A8D2AFC2C7A2E7A2E792AFD0E0F9D0A8
:1022D300E0F8D0D0D0E032C0E0C0D0E8C0E0E9C040
:1022E300E0C008C009C082C083A2AFE433F9D2AF13
:1022F30090102EE0F8A3E0687008539AF7A37401D6
:102303008025C2EA90102EE0F50874012508F074C8
:10231300AE2508F582E4340FF583E0F5F990102E2D
:10232300E0C394804002E4F0E9A2E092AFD083D00E
:1023330082D009D008D0E0F9D0E0F8D0D0D0E03294
:10234300C2AF0200002202011FFFFFFFFFFFFFFFDA
:10235300FFC082C083784C790888828983A3A3A3B2
:10236300A3A3A3E4F088828983A3A3A3A3A374FFF5
:10237300F0E82418F8E93400F9E864AC7003E96480
:102383000870D690084E74FFF090084DE4F0900862
:102393004CF090084FF0A3F0023C4C74EC1216552D
:1023A30090084FE0F508A3E0F509E5084509700634
:1023B3001209D30231DA850882850983E014601893
:1023C30014601524FE601124C47003022BE024C0A2
:1023D3007003022BE00231DAE0F9120B898A0A8BCF
:1023E3000BAE0AAF0B9004A6E070030227DE120ABD
:1023F3007BE9F875F005A4C8AAF02AF974A928F5B1
:102403000C740439F50D850C82F583E0F50AA3E01D
:10241300F50BAC0AFDEEFAEFFB120B83E9F50E7434
:1024230002650E70030227868E828F83E024FE608E
:102433000A24FE70030226700231DAEE6508700387
:10244300EF650960211209F19007DAE06401701663
:102453009007D9E070107901120C97120C67120CD7
:10246300917900120C9DE50E6021E5082415F58293
:10247300E5093400F583E060129007D5E0F8A3E0A6
:10248300F9A3E0687003A3E0697042120BFB8A0CA6
:102493008B0D8C0E8D0F7510037511007512007561
:1024A3001300780C79101214037510FF7511FF7562
:1024B30012FF780C79101214648E828F83A3A3E524
:1024C3000CF0A3E50DF0A3E50EF0A3E4F0E508247A
:1024D30015F582E5093400F583E064016003022504
:1024E30088850A82850B83A3A3750CF1750DFF758F
:1024F3000EFF750FFF780C121416780C1218648EE9
:10250300828F83A3A3C082C0839007D7E0F508A37B
:10251300E085080CF50DE4F50EF50FD083D0827835
:102523000C121416AA0CAB0DAC0EAD0F1221D774FE
:10253300041215FBE9701F8E828F83A3A3C082C090
:10254300839007D7E0F508A3E0F509E4F50AF50B56
:10255300D083D0828014850A82850B83A3A3750858
:10256300F17509FF750AFF750BFF780812141675CC
:102573000CFF750DFF750EFF750F007808790C12AF
:102583001464022AD8EE240EF582EF3400F5831288
:10259300187B8E828F83A3A31214BB1221D77404DA
:1025A3001215FBE9640160030230FB850A82850B87
:1025B30083A3A3750CF1750DFF750EFF750FFF78DF
:1025C3000C121416780C1218648E828F83A3A3C086
:1025D30082C0839007D7E0F508A3E085080CF50DCA
:1025E300E4F50EF50FD083D082780C121416AA0CE2
:1025F300AB0DAC0EAD0F1221D774041215FBE970AD
:102603001F8E828F83A3A3C082C0839007D7E0F578
:1026130008A3E0F509E4F50AF50BD083D082801412
:10262300850A82850B83A3A37508F17509FF750AD3
:10263300FF750BFF7808121416750CFF750DFF75E7
:102643000EFF750F007808790C121464EE240EF552
:1026530082EF3400F58378081214AC9007DDE06450
:1026630027700474258002E004F00230FBEE650855
:102673007003EF650960319007F1E0F91209F785FE
:102683000882850983E06402701E9007DAE0640122
:1026930070169007D9E070107900120C97120C672E
:1026A300120C917901120C9DE50E60129007EBE07C
:1026B300F8A3E0F9A3E0687003A3E0697039120B93
:1026C300FB8A0C8B0D8C0E8D0F7510037511007525
:1026D3001200751300780C79101214037510FF752E
:1026E30011FF7512FF780C79101214648E828F8398
:1026F300A3A3780C1214AC850A82850B83A3A3755C
:102703000CF1750DFF750EFF750FFF780C12141683
:10271300780C1218648E828F83A3A3C082C0839027
:1027230007EDE0F508A3E085080CF50DE4F50EF5DB
:102733000FD083D082780C121416AA0CAB0DAC0EFA
:10274300AD0F1221D774041215FBE9701F8E828F0F
:1027530083A3A3C082C0839007EDE0F508A3E0F54F
:1027630009E4F50AF50BD083D0828014850A8285AB
:102773000B83A3A37508F17509FF750AFF750BFF9A
:10278300022EE4850882850983E0640270139007B2
:10279300DAE06401700B9007D9E070057900120C40
:1027A30097E50C2404FEE50D3400FF8E828F83E051
:1027B300F9120BBF8E828F83E09004A7F07902FA9F
:1027C30075F005A4CAA8F028FB74A92AFA74043B7F
:1027D300FB121D93AA0AAB0B0231D7EE65087003F7
:1027E300EF65098E828F8360030229FAE024FE607D
:1027F3000A24FE70030229370231D3EE2415F58231
:10280300EF3400F583E0604C9007D5E0F8A3E0F9DE
:10281300A3E0687003A3E069603A120BFB8A088B9C
:10282300098C0A8D0B750C0A750D00750E00750F5A
:10283300007808790C12140378081218648E828FBA
:1028430083A3A31214BB1221D774041215FBE960EE
:10285300030231D3120BFB8A088B098C0A8D0B758B
:102863000C03750D00750E00750F007808790C12B6
:102873001403750CFF750DFF750EFF7808790C12A4
:1028830014648E828F83A3A378081214ACEE2415EC
:10289300F582EF3400F583E0640170328E828F831A
:1028A300A3A3C082C0839007D7E0F508A3E0F5098E
:1028B300E4F50AD083D0827808121416EE240EF5BC
:1028C30082EF3400F58378081214AC0231D3EE247E
:1028D3000EF582EF3400F58312187B8E828F83A36B
:1028E300A31214BB1221D774041215FBE96401600F
:1028F300030231D38E828F83A3A3C082C083900748
:10290300D7E0F508A3E0F509E4F50AD083D082788F
:1029130008121416EE240EF582EF3400F5837808BE
:102923001214AC9007DDE06427700474258002E084
:10293300040231D29007EBE0F8A3E0F9A3E068705A
:1029430003A3E0696037120BFB8A088B098C0A8D9D
:102953000B750C0A750D00750E00750F007808795C
:102963000C12140378081218648E828F83A3A312A7
:1029730014BB1221D774041215FBE97077EE2402FD
:10298300F508EF3400F509120BFB8A0C8B0D8C0E46
:102993008D0F751003751100751200751300780CF7
:1029A30079101214037510FF7511FF7512FF780C5F
:1029B3007910121464850882850983780C1214AC8B
:1029C300850882850983C082C0839007EDE0F508FE
:1029D300A3E0F509E4F50AF50BD083D08278081259
:1029E3001416EE240EF582EF3400F58378081214E2
:1029F300AC1209FD0231D3E024FE600A24FE700309
:102A0300022AEA0231DA1209F19007DAE06401706E
:102A1300169007D9E070107901120C97120C671207
:102A23000C917900120C9D9007D5E0F8A3E0F9A36F
:102A3300E0687003A3E0696037120BFB8A088B0917
:102A43008C0A8D0B750C0A750D00750E00750F0041
:102A53007808790C12140378081218648E828F8315
:102A6300A3A31214BB1221D774041215FBE97074CB
:102A7300EE2402F508EF3400F509120BFB8A0C8BE8
:102A83000D8C0E8D0F7510037511007512007513E3
:102A930000780C79101214037510FF7511FF75126D
:102AA300FF780C7910121464850882850983780CE9
:102AB3001214AC850882850983C082C0839007D72E
:102AC300E0F508A3E0F509E4F50AF50BD083D0821D
:102AD3007808121416EE240EF582EF3400F583788D
:102AE300081214AC0230FB9007F1E0F91209F785E4
:102AF3000882850983E06402701E9007DAE06401AE
:102B030070169007D9E070107900120C97120C67B9
:102B1300120C917901120C9D9007EBE0F8A3E0F9F8
:102B2300A3E0687003A3E0696037120BFB8A088B8C
:102B3300098C0A8D0B750C0A750D00750E00750F47
:102B4300007808790C12140378081218648E828FA7
:102B530083A3A31214BB1221D774041215FBE970CB
:102B630079EE2402F8EF3400F988088909120BFB87
:102B73008A0C8B0D8C0E8D0F751003751100751259
:102B830000751300780C79101214037510FF75117A
:102B9300FF7512FF780C7910121464850882850979
:102BA30083780C1214AC850882850983C082C083A4
:102BB3009007EDE0F508A3E0F509E4F50AF50BD07D
:102BC30083D0827808121416EE240EF582EF3400B7
:102BD300F58378081214AC1209FD0231CD9004A6D6
:102BE300E07003022FF1120A7BE9F875F005A4C81F
:102BF300AAF02AF974A928F510740439F51185107F
:102C030082F583E0F508A3E0F5099004A7E0F875E1
:102C1300F005A4C8AAF02AF974A928F50C7404399C
:102C2300F50D90084DE054077003022EFFA3E0F961
:102C3300120B898A0A8B0BAE0AAF0BAC08AD0912D3
:102C43000B83E9F50E7402650E7003022EFF850CEB
:102C530082850D83A3A3A3A3E0F875F08AA4C8AA71
:102C6300F02AF974B128F50A740839F50BAA0AFB9E
:102C7300120BB3AA0AAB0B120BAD751280751300BE
:102C830078121218687C007D60E50A2406FAE50BC9
:102C93003401FB120AF374021215FBA80AA90B9064
:102CA3006195E0C0E0E82486F582E93401F583D03C
:102CB300E0F0906196E0C0E0E82487F582E9340112
:102CC300F583D0E0F0906197E0C0E0E82488F582D6
:102CD300E93401F583D0E0F0906198E0C0E0E824A6
:102CE30089F582E93401F583D0E0F08E828F83E0A9
:102CF30024FE600A24FE7003022E0A022EFF12092C
:102D0300F19007DAE0640170119007D9E0700B12BB
:102D13000C67120C917900120C9DE50E601290075E
:102D2300D5E0F8A3E0F9A3E0687003A3E069703687
:102D3300120BFB8A0C8B0D8C0E8D0F751003751106
:102D430000751200780C79101214037510FF7511B9
:102D5300FF7512FF780C79101214648E828F83A38F
:102D6300A3780C1214AC850882850983A3A3750C80
:102D7300F1750DFF750EFF750FFF780C12141678A1
:102D83000C1218648E828F83A3A3C082C083900722
:102D9300D7E0F50CA3E0F50DE4F50EF50FD083D0E5
:102DA30082780C121416AA0CAB0DAC0EAD0F1221C7
:102DB300D774041215FBE9701F8E828F83A3A3C0FF
:102DC30082C0839007D7E0F508A3E0F509E4F50A8C
:102DD300F50BD083D0828014850882850983A3A351
:102DE3007508F17509FF750AFF750BFF7808121452
:102DF30016750CFF750DFF750EFF750F00780879BA
:102E03000C1214640230EC9007F1E0F91209F7E5B3
:102E13000E60129007EBE0F8A3E0F9A3E0687003FB
:102E2300A3E0697036120BFB8A0C8B0D8C0E8D0F91
:102E3300751003751100751200780C7910121403C4
:102E43007510FF7511FF7512FF780C791012146459
:102E53008E828F83A3A3780C1214AC850882850914
:102E630083A3A3750CF1750DFF750EFF750FFF7826
:102E73000C121416780C1218648E828F83A3A3C0CD
:102E830082C0839007EDE0F50CA3E0F50DE4F50EA9
:102E9300F50FD083D082780C121416AA0CAB0DACAC
:102EA3000EAD0F1221D774041215FBE9701F8E8229
:102EB3008F83A3A3C082C0839007EDE0F508A3E04E
:102EC300F509E4F50AF50BD083D0828014850882D6
:102ED300850983A3A37508F17509FF750AFF750BAF
:102EE300FF7808121416750CFF750DFF750EFF752C
:102EF3000F007808790C1214640231BBE510650CDD
:102F03007004E511650D7003022FCF850C82850DCA
:102F130083A3A3A3E07003022FB3850C82850D83E3
:102F2300A3A3A3A3E0F875F08AA4C8AAF02AF974AE
:102F3300B128FE740839FFEEFAEFFB120BB3EEFA79
:102F4300EFFB120BAD750A80750B00780A12186837
:102F53007C007D60EE2406FAEF3401FB120AF37461
:102F6300021215FB906195E0C0E0EE2486F582EF36
:102F73003401F583D0E0F0906196E0C0E0EE248761
:102F8300F582EF3401F583D0E0F0906197E0C0E083
:102F9300EE2488F582EF3401F583D0E0F090619858
:102FA300E0C0E0EE2489F582EF3401F583D0E0F050
:102FB300E5102404FEE5113400FF8E828F83E0F9CF
:102FC300120BBF8E828F83E09004A7F079029004E6
:102FD300A7E0FA75F005A4CAA8F028FB74A92AFA99
:102FE30074043BFB121D93AA08AB090231D7900866
:102FF3004DE0540770030231DAA3E0F9120B898A1A
:10300300088B09AE08AF098E828F83E024FE600A25
:1030130024FE70030231030231DA1209F19007DA58
:10302300E0640170169007D9E070107901120C97D3
:10303300120C67120C917900120C9D9007D5E0F8E1
:10304300A3E0F9A3E0687003A3E0696037120BFB08
:103053008A088B098C0A8D0B750C0A750D00750E89
:1030630000750F007808790C12140378081218649D
:103073008E828F83A3A31214BB1221D7740412155B
:10308300FBE97074EE2402F508EF3400F509120B26
:10309300FB8A0C8B0D8C0E8D0F751003751100754B
:1030A3001200751300780C79101214037510FF7554
:1030B30011FF7512FF780C7910121464850882854C
:1030C3000983780C1214AC850882850983C082C0F9
:1030D300839007D7E0F508A3E0F509E4F50AF50BBB
:1030E300D083D0827808121416EE240EF582EF34C2
:1030F30000F58378081214AC90084E74020231D2A2
:103103009007F1E0F91209F79007EBE0F8A3E0F973
:10311300A3E0687003A3E0696037120BFB8A088B96
:10312300098C0A8D0B750C0A750D00750E00750F51
:10313300007808790C12140378081218648E828FB1
:1031430083A3A31214BB1221D774041215FBE970D5
:1031530076EE2402F8EF3400F988088909120BFB94
:103163008A0C8B0D8C0E8D0F751003751100751263
:1031730000751300780C79101214037510FF751184
:10318300FF7512FF780C7910121464850882850983
:1031930083780C1214AC850882850983C082C083AE
:1031A3009007EDE0F508A3E0F509E4F50AF50BD087
:1031B30083D0827808121416EE240EF582EF3400C1
:1031C300F58378081214AC1209FD90084E7404F0CC
:1031D300EEFAEFFB120B7D7F0C02172774F0121629
:1031E30055EAFEEBFFEE2402F8EF3400F988088974
:1031F30009EE2406F8EF3400F9880A890B8882F572
:103203008312187F8508828509831214BB120BD79A
:1032130074021215FB850A82850B8312187F8508B9
:10322300828509831214BB120BCB74021215FBEEB9
:10323300240EF582EF3400F5831214BB120BDD8EDE
:10324300828F83E06440701CEE2412F8EF3400F99F
:1032530088828983E0906064F088828983A3E09008
:1032630060658006906064E4F0A3F090084FEEF090
:10327300A3EFF0EE2416F582EF3400F583E0F8A314
:10328300E0F5838882121653906054E4F0A3F0A310
:10329300F0A3F0A3F0A3F0A3F0A3F0A3F0A3F0A393
:1032A300F0A3F0906182E0C2E6F07591BFEE2415C1
:1032B300F582EF3400F583E064017003120C0DE531
:1032C300E170FCEE2414F582EF3400F583E0F46042
:1032D30003E0F5E1EE2415F582EF3400F583740184
:1032E300F090047FE064017073120BFB8A088B0972
:1032F3008C0A8D0B78081218648E828F83A3A31215
:1033030014BB12223074041215FB8A088B098C0A31
:103313008D0B750C05750D00750E00750F00780883
:10332300790C1212DC740378081213CBE50824F429
:10333300F508E5093401F5099007F7E06003121178
:103343003BE4F50AF50B78081218647A207B0090A9
:103353000478E0F91211E374041215FB7F080217D5
:103363002774EA121655EAFEEBFF8C148D15EE4F07
:103373007003023480120BFB8A088B098C0A8D0BB5
:10338300750C01750D00750E00750F007808790C2A
:10339300121403750CFF750DFF750EFF7808790C79
:1033A3001214648E828F83E0640270149007D5E058
:1033B300F8A3E0F9A3E0687003A3E0697024801721
:1033C300E06404701D9007EBE0F8A3E0F9A3E06864
:1033D3007003A3E069700B8E828F83A3A378081216
:1033E30014AC75101A751100751200751300780866
:1033F300121864851482851583A3A31214BB1222A9
:103403003074041215FB8A0C8B0D8C0E8D0F781003
:10341300790C12129D4066851482851583A3A375CA
:103423000CE7750DFF750EFF750FFF780C12141660
:10343300780C1218648E828F83A3A31214BB1221FB
:10344300D774041215FBE97034750C07750D0075FC
:103453000E00750F007808790C12140378081218FF
:10346300648E828F83A3A31214BB1221D774041218
:1034730015FBE97004790080067901800279027FE7
:103483000E02172774F0121655890874FF65086039
:103493000302361590084DE054077003023AF17A9F
:1034A30000784C790888828983A3A3A3A3A3E0644B
:1034B30004703FEA75F018A4F8A9F0745228F58255
:1034C300740839F583E0640170377A00784C790821
:1034D30088828983A3A3A3A3A3E0640460030235C2
:1034E3006A88828983A3A3A3A3A3A3E0640170775B
:1034F30080630AE82418F8E93400F9EAC394044025
:10350300A47A00784C790888828983A3A3A3A3A310
:10351300E064017067EA75F018A4F8A9F074522802
:10352300F582740839F583E0640170627A00784C9F
:10353300790888828983A3A3A3A3A3E0640160031A
:103543000235F188828983A3A3A3A3A3A3E0640123
:1035530060030235F1EA75F018A4F8A9F074512854
:10356300FA740839023AEE0AE82418F8E93400F943
:10357300EAC3940450030234D3023AF10AE824184C
:10358300F8E93400F9EAC39404500302350A7A00D7
:10359300784C790888828983A3A3A3A3A3E0640258
:1035A3007061EA75F018A4F8A9F0745228F58274D2
:1035B3000839F583E0640170597A00784C790888FA
:1035C300828983A3A3A3A3A3E06402707A88828978
:1035D30083A3A3A3A3A3A3E06401706BEA75F0180C
:1035E300A4F8A9F0745128FA740839FB806F0AE82B
:1035F3002418F8E93400F9EAC3940450030235357A
:10360300023AF10AE82418F8E93400F9EAC3940409
:1036130040827A00784C790888828983A3A3A3A384
:10362300A3E06508703A88828983A3A3A3A3A3A315
:10363300E06401702BEA75F018A4F8A9F07451281E
:10364300FE740839FF802C0AE82418F8E93400F9DD
:10365300EAC3940450030235C27A007B00023AF5B0
:103663000AE82418F8E93400F9EAC3940440A97E6F
:10367300007F007A00784C790888828983A3A3A30A
:10368300A3A3E06508701BEA75F018A4F8A9F07409
:103693005228F582740839F583E0640170137A01C6
:1036A30080110AE82418F8E93400F9EAC3940440C5
:1036B300C87A00E50814601014700302382C24FE45
:1036C300700302393F023AF17B00784C7908888213
:1036D3008983A3A3A3A3A3E064027052EB75F0183C
:1036E300A4F8A9F0745228F582740839F583E064CC
:1036F30001704A7B00784C790888828983A3A3A34D
:10370300A3A3E06402600302379A88828983A3A398
:10371300A3A3A3A3E06401707EEB75F018A4F8A93A
:10372300F0745128F50A740839F50B0237B20BE827
:103733002418F8E93400F9EBC3940440917B007832
:103743004C790888828983A3A3A3A3A3E0640460BC
:10375300030237F3EB75F018A4F8A9F0745228F5B7
:1037630082740839F583E0640160030238057B0045
:10377300784C790888828983A3A3A3A3A3E0640474
:10378300600302381088828983A3A3A3A3A3A3E0C1
:10379300640170790239930BE82418F8E93400F9CD
:1037A300EBC3940450030236FC750A00750B00EA60
:1037B300A2E05035850A82850B83A3A3750CF675A9
:1037C3000DFF750EFF750FFF780C121416780C128F
:1037D30018648E828F83A3A31214BB1221D774049F
:1037E3001215FBE97003023AEBAA0AAB0B023AF596
:1037F3000BE82418F8E93400F9EBC39404500302EE
:103803003746EAA2E0501BEEFAEFFB80190BE824DF
:1038130018F8E93400F9EBC3940450030237770234
:103823003A387A007B00023AF57B00784C790888B5
:10383300828983A3A3A3A3A3E064047040EB75F080
:1038430018A4F8A9F0745228F582740839F583E0B6
:10385300640170387B00784C790888828983A3A33C
:10386300A3A3A3E0640460030238F188828983A3DD
:10387300A3A3A3A3A3E0640170740239930BE82408
:1038830018F8E93400F9EBC3940440A37B00784CA7
:10389300790888828983A3A3A3A3A3E06401706347
:1038A300EB75F018A4F8A9F0745228F5827408395E
:1038B300F583E06401705B7B00784C79088882892A
:1038C30083A3A3A3A3A3E06401705288828983A383
:1038D300A3A3A3A3A3E064017043EB75F018A4F8BA
:1038E300A9F0745128F50A740839F50B80440BE8E4
:1038F3002418F8E93400F9EBC39404500302385D4B
:10390300023A380BE82418F8E93400F9EBC39404BD
:103913004080EAA2E0501EEEFAEFFB801C0BE82485
:1039230018F8E93400F9EBC394044091750A007563
:103933000B00023A3E7A007B00023AF57B00784C9A
:10394300790888828983A3A3A3A3A3E064017055A4
:10395300EB75F018A4F8A9F0745228F582740839AD
:10396300F583E06401704D7B00784C790888828987
:1039730083A3A3A3A3A3E064016003023A2688827E
:103983008983A3A3A3A3A3A3E064016003023A264C
:10399300EB75F018A4F8A9F0745128F50A740839E6
:1039A300F50B023A3E0BE82418F8E93400F9EBC3AF
:1039B3009404408E7B00784C790888828983A3A382
:1039C300A3A3A3E064026003023A7DEB75F018A49D
:1039D300F8A9F0745228F582740839F583E064017C
:1039E3006003023A8F7B00784C790888828983A32D
:1039F300A3A3A3A3E064026003023A9688828983A7
:103A0300A3A3A3A3A3A3E064016003023A96EB7507
:103A1300F018A4F8A9F0745128F50A740839F50BC5
:103A2300023AAE0BE82418F8E93400F9EBC3940426
:103A33005003023970750A00750B00EAA2E04003D7
:103A43000237EC850A82850B83A3A3750CF6750DEB
:103A5300FF750EFF750FFF780C121416780C1218F1
:103A6300648E828F83A3A31214BB1221D774041212
:103A730015FBE960030237EC806E0BE82418F8E9C4
:103A83003400F9EBC3940450030239BDEAA2E050B9
:103A93005D80550BE82418F8E93400F9EBC394046E
:103AA30050030239EE750A00750B00EAA2E04003E9
:103AB3000237EC850A82850B83A3A3750CF6750D7B
:103AC300FF750EFF750FFF780C121416780C121881
:103AD300648E828F83A3A31214BB1221D7740412A2
:103AE30015FBE960030237ECEEFAEFFB80047A0082
:103AF3007B0002335F74F612165589097508007846
:103B03004C790888828983A3A3A3A3A3A3E06003BA
:103B1300023BD4E50875F018A4F8A9F0745128FE07
:103B2300740839FF8E828F83A37401F08E828F8392
:103B3300E509F0120BFB8E828F83A3A31214C78EA9
:103B4300828F83A3A3A3A3A3A3E4F0A3F0EE240E85
:103B5300F582EF3400F58374FFF0A3F0A3F0A3F034
:103B6300EE2414F582EF3400F5837401F0EE24158E
:103B7300F582EF3400F5837401F0EE2416F582EF3D
:103B83003400F583E4F0A3F090084DE04509F0908C
:103B9300084CE004F06401600C74806509600674ED
:103BA3004065097019E50875F018A4F8A9F0745177
:103BB30028F8740839F990084FE8F0A3E9F0E5080C
:103BC30075F018A4F8A9F0745128FA740839FB8029
:103BD300180508E82418F8E93400F9E508C3940443
:103BE3005003023B067A007B0080007F0202172706
:103BF300C082C0838A828B83E0F8A3E0F98A828B38
:103C030083E4F0A3F088828983A3F088828983E028
:103C1300F4F890084DE058F090084CE014F0700B65
:103C230090084FE4F0A3F0900479F0801CC082C0A8
:103C33008390084CE0600A90084FE0FAA3E0FB8011
:103C4300047A007B008002E0F9D083D08202011F56
:103C5300C082C083E9FB7A00784C79088882898323
:103C6300A3A3A3A3A3E06B7016EA75F018A4F8A9A5
:103C7300F0745228F582740839F583E0F980110A4B
:103C8300E82418F8E93400F9EAC3940440CE790033
:103C930080B7C082C08390084C023C4A74F6121667
:103CA30055EAFEEBFF9061D0E0C0E0EE2400F58220
:103CB300EF3401F583D0E0F09061D7E0F89061D55F
:103CC300E0C398547FC0E0EE2401F582EF3401F5A0
:103CD30083D0E0F09061D6E0C398547FC0E0EE2437
:103CE30002F582EF3401F583D0E0F0701A9061C5DC
:103CF300E0A2E45012E0A2E7500DEE2402F582EFB9
:103D03003401F5837480F0120CC1EE2401F582EFC7
:103D13003401F583E07034EE2402F582EF3401F5CB
:103D230083E070279061C5E0A2E4501FE0A2E75052
:103D33001AEE2402F582EF3401F5837480F0EE2449
:103D430001F582EF3401F5837480F075E195780015
:103D5300EE2400F582EF3401F583E060279061D310
:103D6300E0C0E08808EE2508F582EF3400F583D043
:103D7300E0F008EE2400F582EF3401F583E0F9E882
:103D8300C39940D975E191023BEE74F6121655EAD8
:103D9300FEEBFF9061C8E0C0E0EE2403F582EF3450
:103DA30001F583D0E0F09061CFE0F89061CDE0C3FE
:103DB30098547FC0E0EE2404F582EF3401F583D0FC
:103DC300E0F09061CEE0C398547FC0E0EE2405F5A7
:103DD30082EF3401F583D0E0F0701A9061C5E0A260
:103DE300E05012E0A2E3500DEE2405F582EF34011A
:103DF300F5837480F0120CC7EE2404F582EF3401CE
:103E0300F583E07034EE2405F582EF3401F583E0A9
:103E130070279061C5E0A2E0501FE0A2E3501AEEC4
:103E23002405F582EF3401F5837480F0EE2404F564
:103E330082EF3401F5837480F0120CCD7A00EE2406
:103E430003F582EF3401F583E0602F9061CBE0C08E
:103E5300E08A08EE2508F8EF3400F9E82480F582BB
:103E6300E93400F583D0E0F00AEE2403F582EF3461
:103E730001F583E0F8EAC39840D175E181023BEE96
:103E830074F41216558908A808E875F08AA4C8AA1C
:103E9300F02AF974B128FE740839FFEEFAEFFB1229
:103EA3000BB3EEFAEFFB120BAD750A80750B0078BE
:103EB3000A1218687C007D60EE2406FAEF3401FBD9
:103EC300120AF374021215FB906195E0C0E0EE2430
:103ED30086F582EF3401F583D0E0F0906196E0C07F
:103EE300E0EE2487F582EF3401F583D0E0F09061B2
:103EF30097E0C0E0EE2488F582EF3401F583D0E04B
:103F0300F0906198E0C0E0EE2489F582EF3401F58A
:103F130083D0E0F07F0402172774F2121655890844
:103F2300A808E875F08AA4C8AAF02AF974B128F899
:103F3300740839F99061C6E0FDE054F0F075E18151
:103F43007C00E82403F582E93401F583E0602B8CDF
:103F53000AE8250AFAE93400FBEA2480F582EB3407
:103F630000F583E09061CAF00CE82403F582E9349C
:103F730001F583E0FAECC39A40D5E82405F582E91C
:103F83003401F583E060049061CEF0E82404F58207
:103F9300E93401F583E060049061CDF0ED9061C6F2
:103FA300F0A808E875F08AA4C8AAF02AF974B12821
:103FB300F8740839F9E0FCE0540FF075E1917A00E8
:103FC300E82400F582E93401F583E060238A0AE8F6
:103FD300250AF582E93400F583E09061D2F00AE81E
:103FE3002400F582E93401F583E0FBEAC39B40DD5D
:103FF300E82402F582E93401F583E060049061D698
:10400300F0E82401F582E93401F583E0600490616E
:10401300D5F0EC9061C6F0850882AE82EEF875F0BB
:104023008AA4C8AAF02AF974B128F50A740839F5E4
:104033000B750C80750D00780C121868E50A2406C0
:10404300FCE50B3401FD7A007B60120AF374021263
:1040530015FBA80AA90BE82486F582E93401F58348
:10406300E0906195F0E82487F582E93401F583E077
:10407300906196F0E82488F582E93401F583E090B5
:104083006197F0E82489F582E93401F583E09061D2
:1040930098F0EE75F005A4CEA8F028FF74A92EF5CC
:1040A3008274043FF583E0F8A3E0F5838882E0643B
:1040B3008070419011AE7435F0A3740BF0A3741D9E
:1040C300F0A3740BF0A37435F0A3740BF0A3743551
:1040D300F0A3740BF0A3741DF0A3740BF0A3743559
:1040E300F0A3740BF0A3743BF0A3740BF09004796A
:1040F300740880059004797407F09011BC741DF066
:10410300A3740BF0A3741DF0A3740BF0A3741DF040
:10411300A3740BF0A3741DF0A3740BF0A3741DF030
:10412300A3740BF0A3741DF0A3740BF07F060217A6
:1041330027C082C0839061907404F0A37448F0A3F5
:104143007402F09061807440F09061BC7403F0904D
:1041530061877419F0906265741BF0906249E0C343
:10416300941390619C400A7409F090606674018016
:1041730007740DF0906066E4F090619A7433F0A3D5
:104183007455F09061A0743AF09007F5E064017003
:1041930009C29190047D7467800590047D7461F079
:1041A300902352E493906186F090234CE493F4605F
:1041B30027E493540FF8906185E0686012E5C654D4
:1041C300804449F5C6E59E547F644970F8E8F0538E
:1041D300C680E59E547F70FA7905120CBB0245A890
:1041E300C082C083E5A8F853A87E906181E4F0A360
:1041F300F0A3F0C2BA539AFEC289759B00C2C2757E
:10420300E90075910075BF0075A91175B905906135
:1042130081F0A374C0F0A3E4F0D2BA439A0174808E
:104223005842A80245A8F00245A8C082C08374F88A
:104233001215E590047BE0F8A3E0F9E84970030266
:10424300435B90047BE054406023790885188285A2
:104253001983AA82AB83120AD5851882851983AA8A
:1042630082AB831207D590047BE054BFF0E0548007
:104273006010790C7A1B7B08120AD590047BE054FA
:104283007FF0E0A2E0503190619A7433F0A374554B
:10429300F09061A0743AF09007F5E064017009C2F0
:1042A3009190047D7467800590047D7461F012071A
:1042B300DB90047BE054FEF0E05402603190619A9D
:1042C300743FF0A3745AF09061A0747FF09007F5E7
:1042D300E064017009D29190047D747180059004AB
:1042E3007D746AF01207DB90047BE054FDF0E05428
:1042F300046013902350E493906186F01207E190D9
:10430300047BE054FBF0E054086013902351E493E2
:10431300906186F01207E190047BE054F7F0E054DB
:10432300106013902352E493906186F01207E1909A
:10433300047BE054EFF0E05420600A1207E190049C
:104343007BE054DFF0A3E05401600D1209DF120794
:10435300E790047CE054FEF074081215FB0245A8B4
:1043630074EC12165574F41215E5851882851983B9
:10437300AC82AD837583817582DB74041214F8906B
:10438300235093F460030244EF907808E0C394024F
:1043930050030244CF7404121631AC82AD8375838B
:1043A3008175828374081214F885188285198385B0
:1043B30082128583137404121631AC82AD83750E99
:1043C300FF750FFF7FFF7E00750C48750D78801514
:1043D30074086E700302446374096E7003024463CD
:1043E300740A6E607B850C82850D83780812149D98
:1043F3008C828D83A909E50AC9F888107418780896
:104403001213CBE5104508F8C3E098A3E099850C97
:1044130082850D83780812149D40188C828D8374D5
:104423001878081213CBE5104508F8E0C398F8A3F1
:10443300E0801C741878081213CBE5104508FAE9DC
:10444300FB8C828D83E0F8A3E0F9EAC398F8EB993B
:10445300F9C3E8950EE9950F5006880E890FEEFF14
:104463000EE50C2404F50CE50D3400F50DEEC394B4
:104473001350030243D374FF650E700474FF650F7A
:1044830060238F08740278081215D274482508F542
:104493008274783509F583780812149D8512828514
:1044A3001383E508F0EC2402FCED3400FD85128251
:1044B300851383A3858212858313740C121631E549
:1044C300826C7003E5836D60030243C17508017557
:1044D300090078081218687402121631AC82AD8391
:1044E3007AD47B0812100374021215FB740C121594
:1044F300FB7F0C021727C082C0839061AE7468F003
:10450300A3746AF090624574FBF0A304F053F4FDC6
:1045130043FE029007F57401F09061A0E0643A90C5
:10452300619A70237433F0A37455F09061A0743AC8
:10453300F0740164017009C29190047D746780284E
:1045430090047D74618021743FF0A3745AF09061EC
:10455300A0747FF0740164017009D29190047D749A
:1045630071800590047D746A024229C082C08390E1
:1045730007D3E0640170119007D9E064016019E08A
:104583007006A3E0640160109007EAE06401700C18
:104593009007F0E064017004790C800279008005D3
:1045A300E0F9122285D083D08202011FC082C0832A
:1045B3009007DD7425F09007DB7401F0A3E4F07A33
:1045C30001FB120C379007C9E0F8A3E0C82416F5E5
:1045D30082E83400F5837403F0A3740AF09007DAD9
:1045E300E0640170169007D9E070107901120C97FE
:1045F300120C67120C917900120CA30245A8C08219
:10460300C08374FA1215E59007D2E06401700812B2
:1046130009EB9007D2E4F075E1F19007C9E0F8A344
:10462300E0C82415F582E83400F5837401F090079F
:10463300D4E0640170769081A1C0828518828519C7
:1046430083AC82AD83758381D08274061214F875AE
:10465300D90D9007CBE0C4333354C04403F5D97864
:10466300C9790788828983A3A3A3E0F5D9888289BE
:1046730083A3A882A983E864CF7003E9640770E386
:10468300851882851983A882A98388828983E0F5A6
:10469300D9A3A882A9837406121631E58268700330
:1046A300E5836970E575E195790180027900120C63
:1046B3003D9011AE7453F0A3740BF0A37459F0A39F
:1046C300740BF0A37453F0A3740BF0A37453F0A30F
:1046D300740BF0A3741DF0A3740BF0A3741DF0A36B
:1046E300740BF0A3745FF0A3740BF09011BC741DF2
:1046F300F0A3740BF0A3741DF0A3740BF0A3741D4B
:10470300F0A3740BF0A3741DF0A3740BF0A3741D3A
:10471300F0A3740BF0A3741DF0A3740BF09007CBFC
:10472300E0F97ACC7B07120C199007DDE0F912222D
:10473300857901120C437AD67BBE7C897D8E120C5F
:104743005B7A557B557C557D00120C257900120C44
:10475300AF9007C9E0F8A3E0C82414F582E8340059
:10476300F5837416F09004797405F00402435D74C4
:10477300F71216558908A808E875F005A4C8AAF029
:104783002AF974A928FE740439FF9007E2E0F97A44
:10479300E37B07120C199007F0E0701A7900120CF2
:1047A300799007B8E070047900800279017AB97BC7
:1047B30007120C1F80057901120C7975E1F175D987
:1047C300239007E2E0C4333354C04405F5D978E0BD
:1047D300790788828983A3A3A3E0F5D98882898393
:1047E300A3A882A983E864E67003E9640770E3750C
:1047F300D90075D90075D90075D90075D90075D957
:1048030000EEF8EFF9E82404FAE93400FBE8242287
:10481300F582E93400F583E0F5D988828983A3A87A
:1048230082A983EA687002EB6970E2EEF8EFF9E8B7
:1048330024031AE93400FBE82426F582E93400F561
:1048430083E0F5D988828983A3A882A983EA687063
:1048530002EB6970E2EE242BF582EF3400F583E07E
:10486300F5D9EE242CF582EF3400F583E0F5D9EE8B
:10487300242DF582EF3400F583E0F5D9EE242EF5EF
:1048830082EF3400F583E0F5D9EE242FF582EF347F
:1048930000F583E0F5D9EE2430F582EF3400F5839B
:1048A300E0F5D9EE2431F582EF3400F583E0F5D954
:1048B300EE2432F582EF3400F583E0F5D9EE2433AC
:1048C300F582EF3400F583E0F5D9EEF8EFF9E8244B
:1048D30005FAE93400FBE8245DF582E93400F58349
:1048E300E0F5D988828983A3A882A983EA68700244
:1048F300EB6970E2EE2437F582EF3400F583E05480
:104903001FF8EE242AF582EF3400F583E0C4335414
:10491300E048F5D975E1959011AE7423F0A3740BBB
:10492300F0A37429F0A3740BF0A3741DF0A3740B0C
:10493300F0A3741DF0A3740BF0A3741DF0A3740B08
:10494300F0A3741DF0A3740BF0A3742FF0A3740BE6
:10495300F09011BC741DF0A3740BF0A3741DF0A3AD
:10496300740BF0A3741DF0A3740BF0A3741DF0A3D8
:10497300740BF0A3741DF0A3740BF0A3741DF0A3C8
:10498300740BF09007EFE0F91222857AD67BBE7C98
:10499300897D8E120C5B7A557B557C557D00120CFC
:1049A3002590600DE4F07901120CAF900479740640
:1049B300F0024F6B74E81216559007E0E0F8A3E09D
:1049C300F5838882A3A3780C12149D9007F1E0FA73
:1049D300F875F005A4C8ACF02CF974D728F58274E7
:1049E3000439F583E0FEA3E0FFEEC333FEEF33FFAC
:1049F3008E14F515751600751700850C08850D09BD
:104A0300850E0A850F0B751004751100751200755C
:104A13001300780879101214037808121864850CAF
:104A230008850D09850E0A850F0B78087914121471
:104A330003780C791412135CE4F516F517780879EA
:104A43001412143C8A0C750D007403780C1215D2E1
:104A5300E50D3395E0F50EF50F7808790C12140384
:104A6300750CFF750DFF750EFF7808790C12146431
:104A7300AA08AB09AC0A7D0012223074041215FB9C
:104A83008A088B09A808A909C3EE98EF995006E88C
:104A93002EF8E93FF9E890600EF0E9A3F0EEA3F0F9
:104AA300EFA3F090600D74C1F07F10021727C0824E
:104AB300C0839007C9E0F8A3E0C82406F582E83470
:104AC30000F583E4F0A3F09007DD0245A3C082C0A4
:104AD300839007E0E0F8A3E0C82406F582E83400F9
:104AE300F583E4F0A3F09007EF0245A302011F74DE
:104AF300F61216559061D0E0F87480C398FCEA244E
:104B030082F582EB3400F583E06004780480027858
:104B130000E8240EF8ECC3985003024C1E7C0C9062
:104B230007FBE4F0EA2476F582EB3400F583E090AA
:104B330007FCF0EA2477F8EB3400F988828983E0F4
:104B43009007FDF088828983A3E09007FEF0EA24B2
:104B530079F8EB3400F988828983E09007FFF088C5
:104B6300828983A3E0900800F0EA247BF8EB340009
:104B7300F988828983E0900801F088828983A3E021
:104B8300900802F0EA247DF8EB3400F988828983E7
:104B9300E0900803F088828983A3E0900804F0EA98
:104BA3002474F8EB3400F98A828B83A3A3A3A3A311
:104BB300E0FEA3E0FF88828983E02EF0A3E03FF0CC
:104BC30088828983E0900805F088828983A3E09036
:104BD3000806F0EA2482F582EB3400F583E06017DF
:104BE3007508FB75090778081218687903120B1109
:104BF30074021215FB7C1074012CF5D975D9037559
:104C030082FB758307ECFEE0F5D9A31EEE70F87501
:104C1300E1957904120C6179018002790002511B3C
:104C230074F61216559061D0E0F87480C398FCEACC
:104C33002482F582EB3400F583E06004780480027B
:104C43007800E8240AF8ECC3985003024D1675085F
:104C5300089007FB7401F07CBF7D0778FC79077E21
:104C6300058C828D83E088828983F08C828D83A377
:104C7300AC82AD8388828983A3A882A9831EEE7048
:104C8300E0EA2480FCEB3400FD8A828B83A3A3A398
:104C9300A3A3E0FEA3E0FF8C828D83E02EF0A3E0CC
:104CA3003FF08C828D83E088828983F08C828D83B0
:104CB300A3AC82AD8388828983A308A9838C828D68
:104CC30083E088828983F0EA2482F582EB3400F55D
:104CD30083E0601A7508FB75090778081218687C69
:104CE300087903120B1174021215FB75080C740179
:104CF3002508F5D975D9037582FB758307AE08E0DE
:104D0300F5D9A31EEE70F875E1957904120C61795B
:104D1300018002790002511B74F7121655EAFEEB6B
:104D2300FF9061D0E06003024E0275D91875D90374
:104D330075D903EEF8EFF9E82408FAE93400FBE843
:104D4300249BF582E93400F583E0F5D988828983D1
:104D5300A3A882A983EA687002EB6970E2EE24A338
:104D6300F582EF3400F583E0F5D9EE24A4F582EF64
:104D73003400F583E0F5D9EE2493F582EF3400F5A2
:104D830083E5822408F8E5833400F9E0F5D9A3E844
:104D930065827003E9658370F2EE2487F582EF3450
:104DA30000F583E5822404F8E5833400F9E0F5D9BE
:104DB300A3E865827003E9658370F275E19579086C
:104DC300EE2493FAEF3400FB120AC97904EE248728
:104DD300FAEF3400FB120AC97904120C61EE246F56
:104DE300F582EF3400F583E0F8A3E0F9EE2471F5E2
:104DF30082EF3400F583E8F0A3E9F07901800279CA
:104E030000024F6B74F6121655EAFEEBFF9007FB98
:104E13007406F07508FB75090778081218687C0199
:104E23007903120B1174021215FB75D90675D90398
:104E33007582FB758307E0F5D9A3E58264007004EE
:104E4300E583640870F075E195900479E064087077
:104E53001EEE246FF582EF3400F583E0F8A3E0F94A
:104E6300EE2471F582EF3400F583E8F0A3E9F079DD
:104E73000102511B74F6121655EAFEEBFF9061D046
:104E8300E0705E9007FB740AF07508FB75090778FC
:104E9300081218687C017903120B1174021215FBB6
:104EA30075D90675D9037582FB758307E0F5D9A318
:104EB300E58264007004E583640870F075E195EEA3
:104EC300246FF582EF3400F583E0F8A3E0F9EE24D4
:104ED30071F582EF3400F583E8F0A3E9F0790180FE
:104EE30002790002511B74F6121655EAFEEBFF908D
:104EF30061D0E0706678019007FB740BF090047941
:104F0300E0640770197508FB7509077808121868BB
:104F13007C017903120B1174021215FB78057401DD
:104F230028F5D975D9037582FB758307E8FAE0F58F
:104F3300D9A31AEA70F875E195EE246FF582EF3480
:104F430000F583E0F8A3E0F9EE2471F582EF340075
:104F5300F583E8F0A3E9F079018002790002511B9F
:104F6300F0EEA2E092AF79007F0102172774F612E8
:104F73001655EAFEEBFF9061D0E0F87480C398FA0F
:104F8300EE2482F582EF3400F583E0600478048038
:104F9300027800E8240BF8EAC39850030250467DD8
:104FA300099007FB7408F0EE24E4F8EF3400F97A73
:104FB300FC7B077C0888828983E08A828B83F08864
:104FC300828983A3A882A9838A828B83A3AA82ABC3
:104FD300831CEC70E0EE2482F582EF3400F583E06D
:104FE300601D7508FB75090778081218687C097934
:104FF30003EEFAEFFB120B1174021215FB7D0D7415
:10500300012DF5D975D9037582FB7583078D08E0EA
:10501300F5D9A31508E50870F675E1957904120C26
:1050230061EE246FF582EF3400F583E0F8A3E0F935
:10503300EE2471F582EF3400F583E8F0A3E9F0790B
:10504300018002790002511B74F6121655EAFEEB39
:10505300FF9061D0E0F87480C398FAEE2482F58261
:10506300EF3400F583E06004780480027800E824DC
:1050730008F8EAC398500302511978069007FB74A5
:105083000CF0900496E09007FCF0900497E09007F2
:10509300FDF0900498E09007FEF0900499E09007EB
:1050A300FFF090049AE0900800F0EE2482F582EF7E
:1050B3003400F583E0601B7508FB75090778081257
:1050C30018687C067903EEFA120B1174021215FBB1
:1050D300780A740128F5D975D9037582FB7583079E
:1050E3008808E0F5D9A31508E50870F675E1957908
:1050F30004120C61EE246FF582EF3400F583E0F8BF
:10510300A3E0F9EE2471F582EF3400F583E8F0A310
:10511300E9F07901800279007F0202172774F61201
:105123001655EAFEEBFF9061D0E0F87480C398FA5D
:10513300EE2482F582EF3400F583E0600478048086
:10514300027800E82404F8EAC39850030251FA787D
:10515300029007FBE8F0EE24F6F582EF3400F583C6
:10516300E09007FCF0EE2482F582EF3400F583E053
:10517300601B7508FB75090778081218687C0279AB
:1051830003EEFA120B1174021215FB780674012850
:10519300F5D975D9037582FB7583078808E0F5D9BE
:1051A300A31508E50870F675E195EE2473F582EF13
:1051B3003400F583E4F0EE247FF582EF3400F583C9
:1051C300E4F0EE241DF582EF3400F583E4F0A3F060
:1051D3007904120C61EE240DF582EF3400F583E0BF
:1051E300F8A3E0F9EE2471F582EF3400F583E8F0DB
:1051F300A3E9F079018002790002511B74F61216BB
:10520300559061D0E0F87480C398FCEA2482F5825B
:10521300EB3400F583E06004780480027800E8242E
:1052230004F8ECC398405B79029007FB7407F0EA3B
:1052330024F7F582EB3400F583E09007FCF0EA24D1
:1052430082F582EB3400F583E060187508FB75097D
:105253000778081218687C0209120B1174021215E0
:10526300FB7906740129F5D975D9037582FB75831A
:1052730007E9F8E0F5D9A318E870F875E195790125
:105283008002790002511B74F5121655E9FCA2AF96
:10529300E433F50AC2AF7D0080010DEA246EF58286
:1052A300EB3400F583E0F8EDC398501A8D08EA2536
:1052B30008F8EB3400F9E8246AF582E93400F58351
:1052C300E06C70D68024EA246EF8EB3400F9E0FE3B
:1052D300EA2EFAEB3400FBEA246AF582EB3400F59C
:1052E30083ECF088828983E004F0E50AA2E092AFC0
:1052F3007F0302172774F6121655A2AFE433FDC2DB
:10530300AFEA246EF582EB3400F583E014F07C0001
:1053130060368C08EA2508F8EB3400F9E8246BF5CD
:1053230082E93400F583E0C0E0E8246AF582E934D9
:1053330000F583D0E0F00CEA246EF582EB3400F53F
:1053430083E0F8ECC39840CAEA246DF582EB34009D
:10535300F58374FFF0EA2469F582EB3400F583E406
:10536300F0EDA2E092AF02511BC082C083E5A8F822
:10537300C2AFEA246AF582EB3400F583E9F0EA244C
:1053830069F582EB3400F583E4F0E8A2E7A2E79243
:10539300AF0245A874F3121655EAFEEBFFECFAEDE3
:1053A300FB8A828B83A3A3A3A3E0541FF0EE2436CE
:1053B300F582EF3400F583E4F0F50AEEFCEFFD8AA5
:1053C300828B83E0C0E0EC245DF582ED3400F5834D
:1053D300D0E0F0750B00E50A33333354F8F50C8A4B
:1053E300828B83E0F508750900E50B78081215B385
:1053F300E508A2E0502FEE2436F8EF3400F9888256
:105403008983E0F508EE2508F508EF3400F509E592
:10541300082438F582E5093400F583E50CF0888229
:105423008983E004F0050B050CE50BC3940840AF3A
:10543300050A8A828B83A3AA82AB838C828D83A382
:10544300AC82AD83E50AC3940550030253C27F05C2
:1054530002172774F71216559004A5E0640370032E
:1054630002573C7C0078A5790488828983A3A3A38F
:10547300A3A3A3E0600302572AECF875F005A4C8C0
:10548300AAF02AF974A928FA740439FB8A828B8357
:10549300A3A37401F08A828B83A3A3A3E4F0EC8A11
:1054A300828B83A3A3A3A3F0EA2462F582EB3400E7
:1054B300F5837401F0EA2467F582EB3400F5837415
:1054C30001F08A828B83A3A3A3A3A3E4F0A3F08AAE
:1054D300828B83A3A3A3A3A3A3A3F0A3F0EA240F24
:1054E300F582EB3400F5837401F0EA2435F582EBA1
:1054F3003400F583E4F0EA2418F582EB3400F583F5
:10550300E4F0A3F0A3F0A3F0EA241CF582EB34004B
:10551300F583E4F0EA241DF582EB3400F583E4F02F
:10552300A3F0EA247FF582EB3400F583E4F0EA2468
:1055330073F582EB3400F583E4F0EA2468F582EB3B
:105543003400F5837480F0EA2469F582EB3400F5C6
:1055530083E4F0EA246EF582EB3400F583E4F0EAA9
:1055630024ECF582EB3400F583E4F0EA24EDF582D4
:10557300EB3400F583E4F0EA24EEF582EB3400F536
:1055830083E4F0EA24EFF582EB3400F583E4F0EAF8
:1055930024F0F582EB3400F583E4F0A3F0EA24F27F
:1055A300F582EB3400F583E4F0A3F0EA24F5F58209
:1055B300EB3400F583E4F0EA2482F582EB3400F562
:1055C30083E4F0EA24D2F582EB3400F583E4F0EAD5
:1055D30024D3F582EB3400F583E4F0EA24D4F58296
:1055E300EB3400F583E4F0A3F0A3F0A3F0EA24D8AE
:1055F300F582EB3400F583E4F0A3F0A3F0A3F0EA23
:1056030024DEF582EB3400F583E4F0EA24E0F5824E
:10561300EB3400F583E4F0EA24DCF582EB3400F5A7
:1056230083E4F0EA24E1F582EB3400F583E4F0EA65
:1056330024E2F582EB3400F583E4F0EA24F8F58202
:10564300EB3400F583E4F0A3F0EA24FAF582EB34BB
:1056530000F583E4F0A3F0EA24FCF582EB3400F5D3
:1056630083E4F0A3F0EA24FEF582EB3400F583E44F
:10567300F0A3F0EAF8EBF9E82404FCE93400FDE8D0
:10568300246AF582E93400F58374FFF08882898304
:10569300A3A882A983EC687002ED6970E2EAF8EBD3
:1056A300F97CBF7D078C828D83E0C0E0E8245DF543
:1056B30082E93400F583D0E0F08C828D83A3AC8241
:1056C300AD8388828983A3A882A983EC64C4700311
:1056D300ED640770D0EAF8EBF97C8C7D048C828D45
:1056E30083A3E0C0E0E824E4F582E93400F583D045
:1056F300E0F08C828D83A3AC82AD8388828983A3FF
:10570300A882A983EC64947003ED640470CF9004C1
:10571300A5E004F0640170258A828B83A3A3A3A36D
:10572300E09004A7F080160CE82405F8E93401F9A9
:10573300ECC39403500302546C7A007B00024F6B5A
:10574300C082C0838A828B83A3A3A3E0600F8A8273
:105753008B83A3A3A3E4F09004A6E014F09004A524
:10576300E014F070069004A774FFF08A828B83A381
:10577300A3E4F09007C4E0700D9004A6E064017008
:10578300057900120C2B0245A8C082C08378A57945
:105793000488828983A3A3A3A3A3A3A3E4F0888299
:1057A3008983A3A3A3A3A3A3F0E82405F8E9340101
:1057B300F9E864B47003E9640770D69004A5E4F0D3
:1057C300A3F0A374FFF075E1F10245A874F5121676
:1057D30055750800750900750A007EA97F048E823D
:1057E3008F83A3A3A3E0603DE5084509602F8508E7
:1057F30082850983E0F8A3E0F5838882A3A31218C6
:105803007B8E828F83E0F8A3E0F5838882A3A312C3
:1058130014BB1221D774041215FBE97008EEF8EFDC
:10582300F988088909050AEE2405FEEF3401FFE52E
:105833000AC3940340A8850882850983A3A3A3A36D
:10584300E0F90252F374F712165578FF79FF7E00E0
:105853007CA97D048C828D83A3A3A3E0606274FF83
:1058630068700374FF697011EC2473F582ED3400E2
:10587300F583E06401703A8021EC2473F582ED3402
:1058830000F583E064017017EC2479F582ED3400B0
:10589300F583C3E098A3E0995026EC24798015ECB6
:1058A300242EF582ED3400F583C3E098A3E09950EC
:1058B3000FEC242EF582ED3400F583E0F8A3E0F934
:1058C3000EEC2405FCED3401FDEEC394034085C3C7
:1058D300EA98EB994004E8FAE9FB024F6B74F6127D
:1058E3001655EAFEEBFFEE2463F582EF3400F583F1
:1058F300E0F8A3E0F9E8497003025985EE2463F860
:10590300EF3400F97A007B00A2AFE433F508C2AFAD
:1059130088828983E0FCA3E0FDEC4D603A888289AC
:1059230083E0FAA3E0FB8A828B83E0FCA3E0FD889B
:10593300828983ECF0A3EDF08A828B83E4F0A3F0F9
:1059430088828983E0FCA3E0FDEC4D700A8882899C
:1059530083A3A3E4F0A3F0E508A2E092AF12110B36
:105963009007C5E004F09007C6E004F0EE2463F569
:1059730082EF3400F583E0F8A3E0F9E8496003021D
:1059830058FF8E828F83A3A3A3E0600F8E828F8341
:10599300A3A3A3E4F09004A6E014F09004A5E014FC
:1059A300F070069004A774FFF08E828F83A3A3E4A4
:1059B300F09007C4E0700D9004A6E06401700579CF
:1059C30000120C2BEEFAEFFB120B9502511B74F72E
:1059D300121655EAFEEBFF8E828F83A3A3A3A3E0E7
:1059E300FA7B0012082FEEFAEFFB120A87120B77ED
:1059F300024F6BC082C0837A0078A97904888289B8
:105A030083A3A3A3E0601EE8246EF582E93400F5C6
:105A130083E06011E8246AF582E93400F583E070DD
:105A230004790180110AE82405F8E93401F9EAC38D
:105A3300940340C979000245A8C082C083788C7959
:105A43000488828983A3E4F088828983A3A882A936
:105A530083E864947003E9640470E690048D740130
:105A630002422974F712165574FC1215E585188243
:105A7300851983E4F0A3F0A3F0A3F0120ACFE9851C
:105A83001882851983F0120ACF7401121631E9F0D6
:105A9300120ACF7402121631E9F085188285198330
:105AA3001214BB74041215FB024F6B74F6121655D5
:105AB300EAFEEBFFEC2403F8ED3400F988088909CA
:105AC300EC2407F8ED3400F9E8FCE9FD8C828D83C2
:105AD300E0F8A3E0F9850882850983E0FAA3E0FBF7
:105AE30012155AEE240DF582EF3400F583E8F0A386
:105AF300E9F08C828D83E0F8A3E0F98508828509BB
:105B030083E0FAA3E0FB12155A8B09EA45096013F7
:105B1300EE240DF582EF3400F583E02401F0A3E0D9
:105B23003400F002511B74F6121655EAFEEBFFEE39
:105B3300242EF582EF3400F583E0FCA3E0FD78002A
